{
  "_format": "hh-sol-artifact-1",
  "contractName": "DegenToken",
  "sourceName": "contracts/DegenToken.sol",
  "abi": [
    {
      "inputs": [],
      "stateMutability": "nonpayable",
      "type": "constructor"
    },
    {
      "anonymous": false,
      "inputs": [
        {
          "indexed": true,
          "internalType": "address",
          "name": "owner",
          "type": "address"
        },
        {
          "indexed": true,
          "internalType": "address",
          "name": "spender",
          "type": "address"
        },
        {
          "indexed": false,
          "internalType": "uint256",
          "name": "value",
          "type": "uint256"
        }
      ],
      "name": "Approval",
      "type": "event"
    },
    {
      "anonymous": false,
      "inputs": [
        {
          "indexed": true,
          "internalType": "address",
          "name": "from",
          "type": "address"
        },
        {
          "indexed": false,
          "internalType": "uint256",
          "name": "value",
          "type": "uint256"
        },
        {
          "indexed": false,
          "internalType": "string",
          "name": "reward",
          "type": "string"
        }
      ],
      "name": "Redeem",
      "type": "event"
    },
    {
      "anonymous": false,
      "inputs": [
        {
          "indexed": true,
          "internalType": "address",
          "name": "from",
          "type": "address"
        },
        {
          "indexed": true,
          "internalType": "address",
          "name": "to",
          "type": "address"
        },
        {
          "indexed": false,
          "internalType": "uint256",
          "name": "value",
          "type": "uint256"
        }
      ],
      "name": "Transfer",
      "type": "event"
    },
    {
      "inputs": [
        {
          "internalType": "address",
          "name": "",
          "type": "address"
        },
        {
          "internalType": "address",
          "name": "",
          "type": "address"
        }
      ],
      "name": "allowance",
      "outputs": [
        {
          "internalType": "uint256",
          "name": "",
          "type": "uint256"
        }
      ],
      "stateMutability": "view",
      "type": "function"
    },
    {
      "inputs": [
        {
          "internalType": "address",
          "name": "_spender",
          "type": "address"
        },
        {
          "internalType": "uint256",
          "name": "_value",
          "type": "uint256"
        }
      ],
      "name": "approve",
      "outputs": [
        {
          "internalType": "bool",
          "name": "success",
          "type": "bool"
        }
      ],
      "stateMutability": "nonpayable",
      "type": "function"
    },
    {
      "inputs": [
        {
          "internalType": "address",
          "name": "",
          "type": "address"
        }
      ],
      "name": "balanceOf",
      "outputs": [
        {
          "internalType": "uint256",
          "name": "",
          "type": "uint256"
        }
      ],
      "stateMutability": "view",
      "type": "function"
    },
    {
      "inputs": [
        {
          "internalType": "uint256",
          "name": "_amount",
          "type": "uint256"
        }
      ],
      "name": "burn",
      "outputs": [],
      "stateMutability": "nonpayable",
      "type": "function"
    },
    {
      "inputs": [],
      "name": "decimals",
      "outputs": [
        {
          "internalType": "uint8",
          "name": "",
          "type": "uint8"
        }
      ],
      "stateMutability": "view",
      "type": "function"
    },
    {
      "inputs": [
        {
          "internalType": "address",
          "name": "_spender",
          "type": "address"
        },
        {
          "internalType": "uint256",
          "name": "_subtractedValue",
          "type": "uint256"
        }
      ],
      "name": "decreaseAllowance",
      "outputs": [
        {
          "internalType": "bool",
          "name": "",
          "type": "bool"
        }
      ],
      "stateMutability": "nonpayable",
      "type": "function"
    },
    {
      "inputs": [
        {
          "internalType": "address",
          "name": "_spender",
          "type": "address"
        },
        {
          "internalType": "uint256",
          "name": "_addedValue",
          "type": "uint256"
        }
      ],
      "name": "increaseAllowance",
      "outputs": [
        {
          "internalType": "bool",
          "name": "",
          "type": "bool"
        }
      ],
      "stateMutability": "nonpayable",
      "type": "function"
    },
    {
      "inputs": [
        {
          "internalType": "address",
          "name": "_to",
          "type": "address"
        },
        {
          "internalType": "uint256",
          "name": "_amount",
          "type": "uint256"
        }
      ],
      "name": "mint",
      "outputs": [],
      "stateMutability": "nonpayable",
      "type": "function"
    },
    {
      "inputs": [],
      "name": "name",
      "outputs": [
        {
          "internalType": "string",
          "name": "",
          "type": "string"
        }
      ],
      "stateMutability": "view",
      "type": "function"
    },
    {
      "inputs": [],
      "name": "owner",
      "outputs": [
        {
          "internalType": "address",
          "name": "",
          "type": "address"
        }
      ],
      "stateMutability": "view",
      "type": "function"
    },
    {
      "inputs": [
        {
          "internalType": "uint256",
          "name": "_rewardIndex",
          "type": "uint256"
        }
      ],
      "name": "redeem",
      "outputs": [
        {
          "internalType": "string",
          "name": "",
          "type": "string"
        }
      ],
      "stateMutability": "nonpayable",
      "type": "function"
    },
    {
      "inputs": [],
      "name": "redeemRate",
      "outputs": [
        {
          "internalType": "uint256",
          "name": "",
          "type": "uint256"
        }
      ],
      "stateMutability": "view",
      "type": "function"
    },
    {
      "inputs": [
        {
          "internalType": "uint256",
          "name": "",
          "type": "uint256"
        }
      ],
      "name": "rewards",
      "outputs": [
        {
          "internalType": "string",
          "name": "",
          "type": "string"
        }
      ],
      "stateMutability": "view",
      "type": "function"
    },
    {
      "inputs": [],
      "name": "symbol",
      "outputs": [
        {
          "internalType": "string",
          "name": "",
          "type": "string"
        }
      ],
      "stateMutability": "view",
      "type": "function"
    },
    {
      "inputs": [],
      "name": "totalSupply",
      "outputs": [
        {
          "internalType": "uint256",
          "name": "",
          "type": "uint256"
        }
      ],
      "stateMutability": "view",
      "type": "function"
    },
    {
      "inputs": [
        {
          "internalType": "address",
          "name": "_to",
          "type": "address"
        },
        {
          "internalType": "uint256",
          "name": "_value",
          "type": "uint256"
        }
      ],
      "name": "transfer",
      "outputs": [
        {
          "internalType": "bool",
          "name": "success",
          "type": "bool"
        }
      ],
      "stateMutability": "nonpayable",
      "type": "function"
    },
    {
      "inputs": [
        {
          "internalType": "address",
          "name": "_from",
          "type": "address"
        },
        {
          "internalType": "address",
          "name": "_to",
          "type": "address"
        },
        {
          "internalType": "uint256",
          "name": "_value",
          "type": "uint256"
        }
      ],
      "name": "transferFrom",
      "outputs": [
        {
          "internalType": "bool",
          "name": "success",
          "type": "bool"
        }
      ],
      "stateMutability": "nonpayable",
      "type": "function"
    },
    {
      "inputs": [
        {
          "internalType": "address",
          "name": "_newOwner",
          "type": "address"
        }
      ],
      "name": "transferOwnership",
      "outputs": [],
      "stateMutability": "nonpayable",
      "type": "function"
    }
  ],
  "bytecode": "0x60806040526040518060400160405280600581526020017f646567656e000000000000000000000000000000000000000000000000000000815250600090816200004a9190620005fa565b506040518060400160405280600381526020017f44474e000000000000000000000000000000000000000000000000000000000081525060019081620000919190620005fa565b506012600260006101000a81548160ff021916908360ff16021790555069152d02c7e14af680000060035560405180606001604052806040518060400160405280600981526020017f617661784261646765000000000000000000000000000000000000000000000081525081526020016040518060400160405280600881526020017f547265617375726500000000000000000000000000000000000000000000000081525081526020016040518060400160405280600c81526020017f616d617a6f6e436f75706f6e000000000000000000000000000000000000000081525081525060079060036200018892919062000293565b5060646008553480156200019b57600080fd5b5033600460006101000a81548173ffffffffffffffffffffffffffffffffffffffff021916908373ffffffffffffffffffffffffffffffffffffffff160217905550600354600560003373ffffffffffffffffffffffffffffffffffffffff1673ffffffffffffffffffffffffffffffffffffffff168152602001908152602001600020819055503373ffffffffffffffffffffffffffffffffffffffff16600073ffffffffffffffffffffffffffffffffffffffff167fddf252ad1be2c89b69c2b068fc378daa952ba7f163c4a11628f55a4df523b3ef600354604051620002859190620006f2565b60405180910390a36200070f565b828054828255906000526020600020908101928215620002e0579160200282015b82811115620002df578251829081620002ce9190620005fa565b5091602001919060010190620002b4565b5b509050620002ef9190620002f3565b5090565b5b808211156200031757600081816200030d91906200031b565b50600101620002f4565b5090565b5080546200032990620003e9565b6000825580601f106200033d57506200035e565b601f0160209004906000526020600020908101906200035d919062000361565b5b50565b5b808211156200037c57600081600090555060010162000362565b5090565b600081519050919050565b7f4e487b7100000000000000000000000000000000000000000000000000000000600052604160045260246000fd5b7f4e487b7100000000000000000000000000000000000000000000000000000000600052602260045260246000fd5b600060028204905060018216806200040257607f821691505b602082108103620004185762000417620003ba565b5b50919050565b60008190508160005260206000209050919050565b60006020601f8301049050919050565b600082821b905092915050565b600060088302620004827fffffffffffffffffffffffffffffffffffffffffffffffffffffffffffffffff8262000443565b6200048e868362000443565b95508019841693508086168417925050509392505050565b6000819050919050565b6000819050919050565b6000620004db620004d5620004cf84620004a6565b620004b0565b620004a6565b9050919050565b6000819050919050565b620004f783620004ba565b6200050f6200050682620004e2565b84845462000450565b825550505050565b600090565b6200052662000517565b62000533818484620004ec565b505050565b5b818110156200055b576200054f6000826200051c565b60018101905062000539565b5050565b601f821115620005aa5762000574816200041e565b6200057f8462000433565b810160208510156200058f578190505b620005a76200059e8562000433565b83018262000538565b50505b505050565b600082821c905092915050565b6000620005cf60001984600802620005af565b1980831691505092915050565b6000620005ea8383620005bc565b9150826002028217905092915050565b620006058262000380565b67ffffffffffffffff8111156200062157620006206200038b565b5b6200062d8254620003e9565b6200063a8282856200055f565b600060209050601f8311600181146200067257600084156200065d578287015190505b620006698582620005dc565b865550620006d9565b601f19841662000682866200041e565b60005b82811015620006ac5784890151825560018201915060208501945060208101905062000685565b86831015620006cc5784890151620006c8601f891682620005bc565b8355505b6001600288020188555050505b505050505050565b620006ec81620004a6565b82525050565b6000602082019050620007096000830184620006e1565b92915050565b612395806200071f6000396000f3fe608060405234801561001057600080fd5b50600436106101165760003560e01c806370a08231116100a2578063a9059cbb11610071578063a9059cbb146102f7578063db006a7514610327578063dd62ed3e14610357578063f2fde38b14610387578063f301af42146103a357610116565b806370a082311461025b5780638da5cb5b1461028b57806395d89b41146102a9578063a457c2d7146102c757610116565b806323b872dd116100e957806323b872dd146101a5578063313ce567146101d557806339509351146101f357806340c10f191461022357806342966c681461023f57610116565b806306fdde031461011b578063095ea7b3146101395780630adcdbaa1461016957806318160ddd14610187575b600080fd5b6101236103d3565b60405161013091906119de565b60405180910390f35b610153600480360381019061014e9190611a99565b610461565b6040516101609190611af4565b60405180910390f35b6101716105c1565b60405161017e9190611b1e565b60405180910390f35b61018f6105c7565b60405161019c9190611b1e565b60405180910390f35b6101bf60048036038101906101ba9190611b39565b6105cd565b6040516101cc9190611af4565b60405180910390f35b6101dd61092d565b6040516101ea9190611ba8565b60405180910390f35b61020d60048036038101906102089190611a99565b610940565b60405161021a9190611af4565b60405180910390f35b61023d60048036038101906102389190611a99565b610b2e565b005b61025960048036038101906102549190611bc3565b610d06565b005b61027560048036038101906102709190611bf0565b610e60565b6040516102829190611b1e565b60405180910390f35b610293610e78565b6040516102a09190611c2c565b60405180910390f35b6102b1610e9e565b6040516102be91906119de565b60405180910390f35b6102e160048036038101906102dc9190611a99565b610f2c565b6040516102ee9190611af4565b60405180910390f35b610311600480360381019061030c9190611a99565b6111d9565b60405161031e9190611af4565b60405180910390f35b610341600480360381019061033c9190611bc3565b6113e6565b60405161034e91906119de565b60405180910390f35b610371600480360381019061036c9190611c47565b61173a565b60405161037e9190611b1e565b60405180910390f35b6103a1600480360381019061039c9190611bf0565b61175f565b005b6103bd60048036038101906103b89190611bc3565b6118a2565b6040516103ca91906119de565b60405180910390f35b600080546103e090611cb6565b80601f016020809104026020016040519081016040528092919081815260200182805461040c90611cb6565b80156104595780601f1061042e57610100808354040283529160200191610459565b820191906000526020600020905b81548152906001019060200180831161043c57829003601f168201915b505050505081565b60008073ffffffffffffffffffffffffffffffffffffffff168373ffffffffffffffffffffffffffffffffffffffff16036104d1576040517f08c379a00000000000000000000000000000000000000000000000000000000081526004016104c890611d33565b60405180910390fd5b81600660003373ffffffffffffffffffffffffffffffffffffffff1673ffffffffffffffffffffffffffffffffffffffff16815260200190815260200160002060008573ffffffffffffffffffffffffffffffffffffffff1673ffffffffffffffffffffffffffffffffffffffff168152602001908152602001600020819055508273ffffffffffffffffffffffffffffffffffffffff163373ffffffffffffffffffffffffffffffffffffffff167f8c5be1e5ebec7d5bd14f71427d1e84f3dd0314c0f7b2291e5b200ac8c7c3b925846040516105af9190611b1e565b60405180910390a36001905092915050565b60085481565b60035481565b60008073ffffffffffffffffffffffffffffffffffffffff168373ffffffffffffffffffffffffffffffffffffffff160361063d576040517f08c379a000000000000000000000000000000000000000000000000000000000815260040161063490611d9f565b60405180910390fd5b600560008573ffffffffffffffffffffffffffffffffffffffff1673ffffffffffffffffffffffffffffffffffffffff168152602001908152602001600020548211156106bf576040517f08c379a00000000000000000000000000000000000000000000000000000000081526004016106b690611e0b565b60405180910390fd5b600660008573ffffffffffffffffffffffffffffffffffffffff1673ffffffffffffffffffffffffffffffffffffffff16815260200190815260200160002060003373ffffffffffffffffffffffffffffffffffffffff1673ffffffffffffffffffffffffffffffffffffffff1681526020019081526020016000205482111561077e576040517f08c379a000000000000000000000000000000000000000000000000000000000815260040161077590611e77565b60405180910390fd5b81600560008673ffffffffffffffffffffffffffffffffffffffff1673ffffffffffffffffffffffffffffffffffffffff16815260200190815260200160002060008282546107cd9190611ec6565b9250508190555081600560008573ffffffffffffffffffffffffffffffffffffffff1673ffffffffffffffffffffffffffffffffffffffff16815260200190815260200160002060008282546108239190611efa565b9250508190555081600660008673ffffffffffffffffffffffffffffffffffffffff1673ffffffffffffffffffffffffffffffffffffffff16815260200190815260200160002060003373ffffffffffffffffffffffffffffffffffffffff1673ffffffffffffffffffffffffffffffffffffffff16815260200190815260200160002060008282546108b69190611ec6565b925050819055508273ffffffffffffffffffffffffffffffffffffffff168473ffffffffffffffffffffffffffffffffffffffff167fddf252ad1be2c89b69c2b068fc378daa952ba7f163c4a11628f55a4df523b3ef8460405161091a9190611b1e565b60405180910390a3600190509392505050565b600260009054906101000a900460ff1681565b60008073ffffffffffffffffffffffffffffffffffffffff168373ffffffffffffffffffffffffffffffffffffffff16036109b0576040517f08c379a00000000000000000000000000000000000000000000000000000000081526004016109a790611fa0565b60405180910390fd5b81600660003373ffffffffffffffffffffffffffffffffffffffff1673ffffffffffffffffffffffffffffffffffffffff16815260200190815260200160002060008573ffffffffffffffffffffffffffffffffffffffff1673ffffffffffffffffffffffffffffffffffffffff1681526020019081526020016000206000828254610a3c9190611efa565b925050819055508273ffffffffffffffffffffffffffffffffffffffff163373ffffffffffffffffffffffffffffffffffffffff167f8c5be1e5ebec7d5bd14f71427d1e84f3dd0314c0f7b2291e5b200ac8c7c3b925600660003373ffffffffffffffffffffffffffffffffffffffff1673ffffffffffffffffffffffffffffffffffffffff16815260200190815260200160002060008773ffffffffffffffffffffffffffffffffffffffff1673ffffffffffffffffffffffffffffffffffffffff16815260200190815260200160002054604051610b1c9190611b1e565b60405180910390a36001905092915050565b600460009054906101000a900473ffffffffffffffffffffffffffffffffffffffff1673ffffffffffffffffffffffffffffffffffffffff163373ffffffffffffffffffffffffffffffffffffffff1614610bbe576040517f08c379a0000000000000000000000000000000000000000000000000000000008152600401610bb59061200c565b60405180910390fd5b600073ffffffffffffffffffffffffffffffffffffffff168273ffffffffffffffffffffffffffffffffffffffff1603610c2d576040517f08c379a0000000000000000000000000000000000000000000000000000000008152600401610c2490612078565b60405180910390fd5b8060036000828254610c3f9190611efa565b9250508190555080600560008473ffffffffffffffffffffffffffffffffffffffff1673ffffffffffffffffffffffffffffffffffffffff1681526020019081526020016000206000828254610c959190611efa565b925050819055508173ffffffffffffffffffffffffffffffffffffffff16600073ffffffffffffffffffffffffffffffffffffffff167fddf252ad1be2c89b69c2b068fc378daa952ba7f163c4a11628f55a4df523b3ef83604051610cfa9190611b1e565b60405180910390a35050565b80600560003373ffffffffffffffffffffffffffffffffffffffff1673ffffffffffffffffffffffffffffffffffffffff168152602001908152602001600020541015610d88576040517f08c379a0000000000000000000000000000000000000000000000000000000008152600401610d7f90611e0b565b60405180910390fd5b80600560003373ffffffffffffffffffffffffffffffffffffffff1673ffffffffffffffffffffffffffffffffffffffff1681526020019081526020016000206000828254610dd79190611ec6565b925050819055508060036000828254610df09190611ec6565b92505081905550600073ffffffffffffffffffffffffffffffffffffffff163373ffffffffffffffffffffffffffffffffffffffff167fddf252ad1be2c89b69c2b068fc378daa952ba7f163c4a11628f55a4df523b3ef83604051610e559190611b1e565b60405180910390a350565b60056020528060005260406000206000915090505481565b600460009054906101000a900473ffffffffffffffffffffffffffffffffffffffff1681565b60018054610eab90611cb6565b80601f0160208091040260200160405190810160405280929190818152602001828054610ed790611cb6565b8015610f245780601f10610ef957610100808354040283529160200191610f24565b820191906000526020600020905b815481529060010190602001808311610f0757829003601f168201915b505050505081565b60008073ffffffffffffffffffffffffffffffffffffffff168373ffffffffffffffffffffffffffffffffffffffff1603610f9c576040517f08c379a0000000000000000000000000000000000000000000000000000000008152600401610f939061210a565b60405180910390fd5b81600660003373ffffffffffffffffffffffffffffffffffffffff1673ffffffffffffffffffffffffffffffffffffffff16815260200190815260200160002060008573ffffffffffffffffffffffffffffffffffffffff1673ffffffffffffffffffffffffffffffffffffffff16815260200190815260200160002054101561105b576040517f08c379a000000000000000000000000000000000000000000000000000000000815260040161105290612176565b60405180910390fd5b81600660003373ffffffffffffffffffffffffffffffffffffffff1673ffffffffffffffffffffffffffffffffffffffff16815260200190815260200160002060008573ffffffffffffffffffffffffffffffffffffffff1673ffffffffffffffffffffffffffffffffffffffff16815260200190815260200160002060008282546110e79190611ec6565b925050819055508273ffffffffffffffffffffffffffffffffffffffff163373ffffffffffffffffffffffffffffffffffffffff167f8c5be1e5ebec7d5bd14f71427d1e84f3dd0314c0f7b2291e5b200ac8c7c3b925600660003373ffffffffffffffffffffffffffffffffffffffff1673ffffffffffffffffffffffffffffffffffffffff16815260200190815260200160002060008773ffffffffffffffffffffffffffffffffffffffff1673ffffffffffffffffffffffffffffffffffffffff168152602001908152602001600020546040516111c79190611b1e565b60405180910390a36001905092915050565b60008073ffffffffffffffffffffffffffffffffffffffff168373ffffffffffffffffffffffffffffffffffffffff1603611249576040517f08c379a000000000000000000000000000000000000000000000000000000000815260040161124090611d9f565b60405180910390fd5b81600560003373ffffffffffffffffffffffffffffffffffffffff1673ffffffffffffffffffffffffffffffffffffffff1681526020019081526020016000205410156112cb576040517f08c379a00000000000000000000000000000000000000000000000000000000081526004016112c290611e0b565b60405180910390fd5b81600560003373ffffffffffffffffffffffffffffffffffffffff1673ffffffffffffffffffffffffffffffffffffffff168152602001908152602001600020600082825461131a9190611ec6565b9250508190555081600560008573ffffffffffffffffffffffffffffffffffffffff1673ffffffffffffffffffffffffffffffffffffffff16815260200190815260200160002060008282546113709190611efa565b925050819055508273ffffffffffffffffffffffffffffffffffffffff163373ffffffffffffffffffffffffffffffffffffffff167fddf252ad1be2c89b69c2b068fc378daa952ba7f163c4a11628f55a4df523b3ef846040516113d49190611b1e565b60405180910390a36001905092915050565b6060600780549050821061142f576040517f08c379a0000000000000000000000000000000000000000000000000000000008152600401611426906121e2565b60405180910390fd5b600854600560003373ffffffffffffffffffffffffffffffffffffffff1673ffffffffffffffffffffffffffffffffffffffff1681526020019081526020016000205410156114b3576040517f08c379a00000000000000000000000000000000000000000000000000000000081526004016114aa9061224e565b60405180910390fd5b600854600560003373ffffffffffffffffffffffffffffffffffffffff1673ffffffffffffffffffffffffffffffffffffffff16815260200190815260200160002060008282546115049190611ec6565b925050819055506008546003600082825461151f9190611ec6565b92505081905550600073ffffffffffffffffffffffffffffffffffffffff163373ffffffffffffffffffffffffffffffffffffffff167fddf252ad1be2c89b69c2b068fc378daa952ba7f163c4a11628f55a4df523b3ef6008546040516115869190611b1e565b60405180910390a36000600783815481106115a4576115a361226e565b5b9060005260206000200180546115b990611cb6565b80601f01602080910402602001604051908101604052809291908181526020018280546115e590611cb6565b80156116325780601f1061160757610100808354040283529160200191611632565b820191906000526020600020905b81548152906001019060200180831161161557829003601f168201915b505050505090503373ffffffffffffffffffffffffffffffffffffffff167f78e6c3f67f57c26578f2487b930b70d844bcc8dd8f4d629fb4af81252ab5aa656008548360405161168392919061229d565b60405180910390a26007838154811061169f5761169e61226e565b5b9060005260206000200180546116b490611cb6565b80601f01602080910402602001604051908101604052809291908181526020018280546116e090611cb6565b801561172d5780601f106117025761010080835404028352916020019161172d565b820191906000526020600020905b81548152906001019060200180831161171057829003601f168201915b5050505050915050919050565b6006602052816000526040600020602052806000526040600020600091509150505481565b600460009054906101000a900473ffffffffffffffffffffffffffffffffffffffff1673ffffffffffffffffffffffffffffffffffffffff163373ffffffffffffffffffffffffffffffffffffffff16146117ef576040517f08c379a00000000000000000000000000000000000000000000000000000000081526004016117e69061200c565b60405180910390fd5b600073ffffffffffffffffffffffffffffffffffffffff168173ffffffffffffffffffffffffffffffffffffffff160361185e576040517f08c379a00000000000000000000000000000000000000000000000000000000081526004016118559061233f565b60405180910390fd5b80600460006101000a81548173ffffffffffffffffffffffffffffffffffffffff021916908373ffffffffffffffffffffffffffffffffffffffff16021790555050565b600781815481106118b257600080fd5b9060005260206000200160009150905080546118cd90611cb6565b80601f01602080910402602001604051908101604052809291908181526020018280546118f990611cb6565b80156119465780601f1061191b57610100808354040283529160200191611946565b820191906000526020600020905b81548152906001019060200180831161192957829003601f168201915b505050505081565b600081519050919050565b600082825260208201905092915050565b60005b8381101561198857808201518184015260208101905061196d565b60008484015250505050565b6000601f19601f8301169050919050565b60006119b08261194e565b6119ba8185611959565b93506119ca81856020860161196a565b6119d381611994565b840191505092915050565b600060208201905081810360008301526119f881846119a5565b905092915050565b600080fd5b600073ffffffffffffffffffffffffffffffffffffffff82169050919050565b6000611a3082611a05565b9050919050565b611a4081611a25565b8114611a4b57600080fd5b50565b600081359050611a5d81611a37565b92915050565b6000819050919050565b611a7681611a63565b8114611a8157600080fd5b50565b600081359050611a9381611a6d565b92915050565b60008060408385031215611ab057611aaf611a00565b5b6000611abe85828601611a4e565b9250506020611acf85828601611a84565b9150509250929050565b60008115159050919050565b611aee81611ad9565b82525050565b6000602082019050611b096000830184611ae5565b92915050565b611b1881611a63565b82525050565b6000602082019050611b336000830184611b0f565b92915050565b600080600060608486031215611b5257611b51611a00565b5b6000611b6086828701611a4e565b9350506020611b7186828701611a4e565b9250506040611b8286828701611a84565b9150509250925092565b600060ff82169050919050565b611ba281611b8c565b82525050565b6000602082019050611bbd6000830184611b99565b92915050565b600060208284031215611bd957611bd8611a00565b5b6000611be784828501611a84565b91505092915050565b600060208284031215611c0657611c05611a00565b5b6000611c1484828501611a4e565b91505092915050565b611c2681611a25565b82525050565b6000602082019050611c416000830184611c1d565b92915050565b60008060408385031215611c5e57611c5d611a00565b5b6000611c6c85828601611a4e565b9250506020611c7d85828601611a4e565b9150509250929050565b7f4e487b7100000000000000000000000000000000000000000000000000000000600052602260045260246000fd5b60006002820490506001821680611cce57607f821691505b602082108103611ce157611ce0611c87565b5b50919050565b7f417070726f766520746f20746865207a65726f20616464726573730000000000600082015250565b6000611d1d601b83611959565b9150611d2882611ce7565b602082019050919050565b60006020820190508181036000830152611d4c81611d10565b9050919050565b7f5472616e7366657220746f20746865207a65726f206164647265737300000000600082015250565b6000611d89601c83611959565b9150611d9482611d53565b602082019050919050565b60006020820190508181036000830152611db881611d7c565b9050919050565b7f496e73756666696369656e742062616c616e6365000000000000000000000000600082015250565b6000611df5601483611959565b9150611e0082611dbf565b602082019050919050565b60006020820190508181036000830152611e2481611de8565b9050919050565b7f416c6c6f77616e63652065786365656465640000000000000000000000000000600082015250565b6000611e61601283611959565b9150611e6c82611e2b565b602082019050919050565b60006020820190508181036000830152611e9081611e54565b9050919050565b7f4e487b7100000000000000000000000000000000000000000000000000000000600052601160045260246000fd5b6000611ed182611a63565b9150611edc83611a63565b9250828203905081811115611ef457611ef3611e97565b5b92915050565b6000611f0582611a63565b9150611f1083611a63565b9250828201905080821115611f2857611f27611e97565b5b92915050565b7f496e63726561736520616c6c6f77616e636520746f20746865207a65726f206160008201527f6464726573730000000000000000000000000000000000000000000000000000602082015250565b6000611f8a602683611959565b9150611f9582611f2e565b604082019050919050565b60006020820190508181036000830152611fb981611f7d565b9050919050565b7f4e6f7420746865206f776e657200000000000000000000000000000000000000600082015250565b6000611ff6600d83611959565b915061200182611fc0565b602082019050919050565b6000602082019050818103600083015261202581611fe9565b9050919050565b7f4d696e7420746f20746865207a65726f20616464726573730000000000000000600082015250565b6000612062601883611959565b915061206d8261202c565b602082019050919050565b6000602082019050818103600083015261209181612055565b9050919050565b7f446563726561736520616c6c6f77616e636520746f20746865207a65726f206160008201527f6464726573730000000000000000000000000000000000000000000000000000602082015250565b60006120f4602683611959565b91506120ff82612098565b604082019050919050565b60006020820190508181036000830152612123816120e7565b9050919050565b7f416c6c6f77616e63652062656c6f77207a65726f000000000000000000000000600082015250565b6000612160601483611959565b915061216b8261212a565b602082019050919050565b6000602082019050818103600083015261218f81612153565b9050919050565b7f496e76616c69642072657761726420696e646578000000000000000000000000600082015250565b60006121cc601483611959565b91506121d782612196565b602082019050919050565b600060208201905081810360008301526121fb816121bf565b9050919050565b7f496e73756666696369656e742062616c616e636520746f2072656465656d0000600082015250565b6000612238601e83611959565b915061224382612202565b602082019050919050565b600060208201905081810360008301526122678161222b565b9050919050565b7f4e487b7100000000000000000000000000000000000000000000000000000000600052603260045260246000fd5b60006040820190506122b26000830185611b0f565b81810360208301526122c481846119a5565b90509392505050565b7f5472616e73666572206f776e65727368697020746f20746865207a65726f206160008201527f6464726573730000000000000000000000000000000000000000000000000000602082015250565b6000612329602683611959565b9150612334826122cd565b604082019050919050565b600060208201905081810360008301526123588161231c565b905091905056fea2646970667358221220ce718349251e9fcc567c1c3dc9efba78e8b341cf21b5c7c0c2613a2e5d1e7cd064736f6c63430008120033",
  "linkReferences": {},
  "deployedLinkReferences": {}
}